{
	"data": {
		"bytecode": {
			"linkReferences": {},
			"object": "60806040526001600c60006101000a81548160ff02191690831515021790555034801561002b57600080fd5b50610cd98061003b6000396000f3fe6080604052600436106101145760003560e01c80638800b621116100a0578063bd20160711610064578063bd2016071461034a578063c6bc518214610387578063d22596c9146103b2578063d9c4870e146103dd578063f3fef3a31461040857610114565b80638800b621146102795780639f04996d146102a25780639f235ccd146102cb5780639fa879d9146102f6578063a04b5b351461032157610114565b806347ccca02116100e757806347ccca02146101a25780634c39a749146101cd5780635ecbdce9146101f8578063636bf73014610223578063675339fd1461024e57610114565b806301333f06146101195780632b5095b61461014457806336e986ef1461016f578063378252f21461018b575b600080fd5b34801561012557600080fd5b5061012e610431565b60405161013b9190610aaa565b60405180910390f35b34801561015057600080fd5b50610159610457565b6040516101669190610b17565b60405180910390f35b61018960048036038101906101849190610937565b61046a565b005b34801561019757600080fd5b506101a0610522565b005b3480156101ae57600080fd5b506101b761056a565b6040516101c49190610b32565b60405180910390f35b3480156101d957600080fd5b506101e2610590565b6040516101ef9190610aaa565b60405180910390f35b34801561020457600080fd5b5061020d6105b6565b60405161021a9190610b4d565b60405180910390f35b34801561022f57600080fd5b506102386105bc565b6040516102459190610b4d565b60405180910390f35b34801561025a57600080fd5b506102636105c2565b6040516102709190610b4d565b60405180910390f35b34801561028557600080fd5b506102a0600480360381019061029b9190610a1f565b6105c8565b005b3480156102ae57600080fd5b506102c960048036038101906102c49190610a1f565b61061f565b005b3480156102d757600080fd5b506102e06106df565b6040516102ed9190610b4d565b60405180910390f35b34801561030257600080fd5b5061030b6106e5565b6040516103189190610b4d565b60405180910390f35b34801561032d57600080fd5b5061034860048036038101906103439190610964565b6106eb565b005b34801561035657600080fd5b50610371600480360381019061036c9190610937565b61078a565b60405161037e9190610b4d565b60405180910390f35b34801561039357600080fd5b5061039c6107a2565b6040516103a99190610b4d565b60405180910390f35b3480156103be57600080fd5b506103c76107a8565b6040516103d49190610b4d565b60405180910390f35b3480156103e957600080fd5b506103f26107ae565b6040516103ff9190610ac5565b60405180910390f35b34801561041457600080fd5b5061042f600480360381019061042a91906109df565b6107d2565b005b600660009054906101000a900473ffffffffffffffffffffffffffffffffffffffff1681565b600c60009054906101000a900460ff1681565b600460009054906101000a900473ffffffffffffffffffffffffffffffffffffffff1673ffffffffffffffffffffffffffffffffffffffff166342842e0e82600660009054906101000a900473ffffffffffffffffffffffffffffffffffffffff166005546040518463ffffffff1660e01b81526004016104ed93929190610ae0565b600060405180830381600087803b15801561050757600080fd5b505af115801561051b573d6000803e3d6000fd5b5050505050565b6000600c60006101000a81548160ff021916908315150217905550610568600160009054906101000a900473ffffffffffffffffffffffffffffffffffffffff1661046a565b565b600460009054906101000a900473ffffffffffffffffffffffffffffffffffffffff1681565b600160009054906101000a900473ffffffffffffffffffffffffffffffffffffffff1681565b600b5481565b60075481565b60025481565b60075482111561061b578160078190555080600660006101000a81548173ffffffffffffffffffffffffffffffffffffffff021916908373ffffffffffffffffffffffffffffffffffffffff1602179055505b5050565b600254421061062d57600080fd5b60011515600c60009054906101000a900460ff1615151461064d57600080fd5b600b548214156106605761065f610522565b5b61066a82826105c8565b81600860008373ffffffffffffffffffffffffffffffffffffffff1673ffffffffffffffffffffffffffffffffffffffff16815260200190815260200160002081905550600a60008154809291906106c190610bf8565b9190505550600954600a5414156106db576106da610522565b5b5050565b60095481565b60035481565b83600460006101000a81548173ffffffffffffffffffffffffffffffffffffffff021916908373ffffffffffffffffffffffffffffffffffffffff16021790555082600581905550600060038190555084600160006101000a81548173ffffffffffffffffffffffffffffffffffffffff021916908373ffffffffffffffffffffffffffffffffffffffff16021790555080600b819055505050505050565b60086020528060005260406000206000915090505481565b60055481565b600a5481565b60008054906101000a900473ffffffffffffffffffffffffffffffffffffffff1681565b60075481141580156108325750600660009054906101000a900473ffffffffffffffffffffffffffffffffffffffff1673ffffffffffffffffffffffffffffffffffffffff168273ffffffffffffffffffffffffffffffffffffffff1614155b15610909576000600860008473ffffffffffffffffffffffffffffffffffffffff1673ffffffffffffffffffffffffffffffffffffffff1681526020019081526020016000205490506000600860008573ffffffffffffffffffffffffffffffffffffffff1673ffffffffffffffffffffffffffffffffffffffff168152602001908152602001600020819055508273ffffffffffffffffffffffffffffffffffffffff166108fc829081150290604051600060405180830381858888f19350505050158015610906573d6000803e3d6000fd5b50505b5050565b60008135905061091c81610c75565b92915050565b60008135905061093181610c8c565b92915050565b60006020828403121561094d5761094c610c70565b5b600061095b8482850161090d565b91505092915050565b600080600080600060a086880312156109805761097f610c70565b5b600061098e8882890161090d565b955050602061099f8882890161090d565b94505060406109b088828901610922565b93505060606109c188828901610922565b92505060806109d288828901610922565b9150509295509295909350565b600080604083850312156109f6576109f5610c70565b5b6000610a048582860161090d565b9250506020610a1585828601610922565b9150509250929050565b60008060408385031215610a3657610a35610c70565b5b6000610a4485828601610922565b9250506020610a558582860161090d565b9150509250929050565b610a6881610b7a565b82525050565b610a7781610b68565b82525050565b610a8681610b8c565b82525050565b610a9581610bc2565b82525050565b610aa481610bb8565b82525050565b6000602082019050610abf6000830184610a6e565b92915050565b6000602082019050610ada6000830184610a5f565b92915050565b6000606082019050610af56000830186610a6e565b610b026020830185610a6e565b610b0f6040830184610a9b565b949350505050565b6000602082019050610b2c6000830184610a7d565b92915050565b6000602082019050610b476000830184610a8c565b92915050565b6000602082019050610b626000830184610a9b565b92915050565b6000610b7382610b98565b9050919050565b6000610b8582610b98565b9050919050565b60008115159050919050565b600073ffffffffffffffffffffffffffffffffffffffff82169050919050565b6000819050919050565b6000610bcd82610bd4565b9050919050565b6000610bdf82610be6565b9050919050565b6000610bf182610b98565b9050919050565b6000610c0382610bb8565b91507fffffffffffffffffffffffffffffffffffffffffffffffffffffffffffffffff821415610c3657610c35610c41565b5b600182019050919050565b7f4e487b7100000000000000000000000000000000000000000000000000000000600052601160045260246000fd5b600080fd5b610c7e81610b68565b8114610c8957600080fd5b50565b610c9581610bb8565b8114610ca057600080fd5b5056fea264697066735822122002c3ff4358a26d48911bbc1b9e034610e179fd2cdeca9c63fbdc915e69968fc864736f6c63430008070033",
			"opcodes": "PUSH1 0x80 PUSH1 0x40 MSTORE PUSH1 0x1 PUSH1 0xC PUSH1 0x0 PUSH2 0x100 EXP DUP2 SLOAD DUP2 PUSH1 0xFF MUL NOT AND SWAP1 DUP4 ISZERO ISZERO MUL OR SWAP1 SSTORE POP CALLVALUE DUP1 ISZERO PUSH2 0x2B JUMPI PUSH1 0x0 DUP1 REVERT JUMPDEST POP PUSH2 0xCD9 DUP1 PUSH2 0x3B PUSH1 0x0 CODECOPY PUSH1 0x0 RETURN INVALID PUSH1 0x80 PUSH1 0x40 MSTORE PUSH1 0x4 CALLDATASIZE LT PUSH2 0x114 JUMPI PUSH1 0x0 CALLDATALOAD PUSH1 0xE0 SHR DUP1 PUSH4 0x8800B621 GT PUSH2 0xA0 JUMPI DUP1 PUSH4 0xBD201607 GT PUSH2 0x64 JUMPI DUP1 PUSH4 0xBD201607 EQ PUSH2 0x34A JUMPI DUP1 PUSH4 0xC6BC5182 EQ PUSH2 0x387 JUMPI DUP1 PUSH4 0xD22596C9 EQ PUSH2 0x3B2 JUMPI DUP1 PUSH4 0xD9C4870E EQ PUSH2 0x3DD JUMPI DUP1 PUSH4 0xF3FEF3A3 EQ PUSH2 0x408 JUMPI PUSH2 0x114 JUMP JUMPDEST DUP1 PUSH4 0x8800B621 EQ PUSH2 0x279 JUMPI DUP1 PUSH4 0x9F04996D EQ PUSH2 0x2A2 JUMPI DUP1 PUSH4 0x9F235CCD EQ PUSH2 0x2CB JUMPI DUP1 PUSH4 0x9FA879D9 EQ PUSH2 0x2F6 JUMPI DUP1 PUSH4 0xA04B5B35 EQ PUSH2 0x321 JUMPI PUSH2 0x114 JUMP JUMPDEST DUP1 PUSH4 0x47CCCA02 GT PUSH2 0xE7 JUMPI DUP1 PUSH4 0x47CCCA02 EQ PUSH2 0x1A2 JUMPI DUP1 PUSH4 0x4C39A749 EQ PUSH2 0x1CD JUMPI DUP1 PUSH4 0x5ECBDCE9 EQ PUSH2 0x1F8 JUMPI DUP1 PUSH4 0x636BF730 EQ PUSH2 0x223 JUMPI DUP1 PUSH4 0x675339FD EQ PUSH2 0x24E JUMPI PUSH2 0x114 JUMP JUMPDEST DUP1 PUSH4 0x1333F06 EQ PUSH2 0x119 JUMPI DUP1 PUSH4 0x2B5095B6 EQ PUSH2 0x144 JUMPI DUP1 PUSH4 0x36E986EF EQ PUSH2 0x16F JUMPI DUP1 PUSH4 0x378252F2 EQ PUSH2 0x18B JUMPI JUMPDEST PUSH1 0x0 DUP1 REVERT JUMPDEST CALLVALUE DUP1 ISZERO PUSH2 0x125 JUMPI PUSH1 0x0 DUP1 REVERT JUMPDEST POP PUSH2 0x12E PUSH2 0x431 JUMP JUMPDEST PUSH1 0x40 MLOAD PUSH2 0x13B SWAP2 SWAP1 PUSH2 0xAAA JUMP JUMPDEST PUSH1 0x40 MLOAD DUP1 SWAP2 SUB SWAP1 RETURN JUMPDEST CALLVALUE DUP1 ISZERO PUSH2 0x150 JUMPI PUSH1 0x0 DUP1 REVERT JUMPDEST POP PUSH2 0x159 PUSH2 0x457 JUMP JUMPDEST PUSH1 0x40 MLOAD PUSH2 0x166 SWAP2 SWAP1 PUSH2 0xB17 JUMP JUMPDEST PUSH1 0x40 MLOAD DUP1 SWAP2 SUB SWAP1 RETURN JUMPDEST PUSH2 0x189 PUSH1 0x4 DUP1 CALLDATASIZE SUB DUP2 ADD SWAP1 PUSH2 0x184 SWAP2 SWAP1 PUSH2 0x937 JUMP JUMPDEST PUSH2 0x46A JUMP JUMPDEST STOP JUMPDEST CALLVALUE DUP1 ISZERO PUSH2 0x197 JUMPI PUSH1 0x0 DUP1 REVERT JUMPDEST POP PUSH2 0x1A0 PUSH2 0x522 JUMP JUMPDEST STOP JUMPDEST CALLVALUE DUP1 ISZERO PUSH2 0x1AE JUMPI PUSH1 0x0 DUP1 REVERT JUMPDEST POP PUSH2 0x1B7 PUSH2 0x56A JUMP JUMPDEST PUSH1 0x40 MLOAD PUSH2 0x1C4 SWAP2 SWAP1 PUSH2 0xB32 JUMP JUMPDEST PUSH1 0x40 MLOAD DUP1 SWAP2 SUB SWAP1 RETURN JUMPDEST CALLVALUE DUP1 ISZERO PUSH2 0x1D9 JUMPI PUSH1 0x0 DUP1 REVERT JUMPDEST POP PUSH2 0x1E2 PUSH2 0x590 JUMP JUMPDEST PUSH1 0x40 MLOAD PUSH2 0x1EF SWAP2 SWAP1 PUSH2 0xAAA JUMP JUMPDEST PUSH1 0x40 MLOAD DUP1 SWAP2 SUB SWAP1 RETURN JUMPDEST CALLVALUE DUP1 ISZERO PUSH2 0x204 JUMPI PUSH1 0x0 DUP1 REVERT JUMPDEST POP PUSH2 0x20D PUSH2 0x5B6 JUMP JUMPDEST PUSH1 0x40 MLOAD PUSH2 0x21A SWAP2 SWAP1 PUSH2 0xB4D JUMP JUMPDEST PUSH1 0x40 MLOAD DUP1 SWAP2 SUB SWAP1 RETURN JUMPDEST CALLVALUE DUP1 ISZERO PUSH2 0x22F JUMPI PUSH1 0x0 DUP1 REVERT JUMPDEST POP PUSH2 0x238 PUSH2 0x5BC JUMP JUMPDEST PUSH1 0x40 MLOAD PUSH2 0x245 SWAP2 SWAP1 PUSH2 0xB4D JUMP JUMPDEST PUSH1 0x40 MLOAD DUP1 SWAP2 SUB SWAP1 RETURN JUMPDEST CALLVALUE DUP1 ISZERO PUSH2 0x25A JUMPI PUSH1 0x0 DUP1 REVERT JUMPDEST POP PUSH2 0x263 PUSH2 0x5C2 JUMP JUMPDEST PUSH1 0x40 MLOAD PUSH2 0x270 SWAP2 SWAP1 PUSH2 0xB4D JUMP JUMPDEST PUSH1 0x40 MLOAD DUP1 SWAP2 SUB SWAP1 RETURN JUMPDEST CALLVALUE DUP1 ISZERO PUSH2 0x285 JUMPI PUSH1 0x0 DUP1 REVERT JUMPDEST POP PUSH2 0x2A0 PUSH1 0x4 DUP1 CALLDATASIZE SUB DUP2 ADD SWAP1 PUSH2 0x29B SWAP2 SWAP1 PUSH2 0xA1F JUMP JUMPDEST PUSH2 0x5C8 JUMP JUMPDEST STOP JUMPDEST CALLVALUE DUP1 ISZERO PUSH2 0x2AE JUMPI PUSH1 0x0 DUP1 REVERT JUMPDEST POP PUSH2 0x2C9 PUSH1 0x4 DUP1 CALLDATASIZE SUB DUP2 ADD SWAP1 PUSH2 0x2C4 SWAP2 SWAP1 PUSH2 0xA1F JUMP JUMPDEST PUSH2 0x61F JUMP JUMPDEST STOP JUMPDEST CALLVALUE DUP1 ISZERO PUSH2 0x2D7 JUMPI PUSH1 0x0 DUP1 REVERT JUMPDEST POP PUSH2 0x2E0 PUSH2 0x6DF JUMP JUMPDEST PUSH1 0x40 MLOAD PUSH2 0x2ED SWAP2 SWAP1 PUSH2 0xB4D JUMP JUMPDEST PUSH1 0x40 MLOAD DUP1 SWAP2 SUB SWAP1 RETURN JUMPDEST CALLVALUE DUP1 ISZERO PUSH2 0x302 JUMPI PUSH1 0x0 DUP1 REVERT JUMPDEST POP PUSH2 0x30B PUSH2 0x6E5 JUMP JUMPDEST PUSH1 0x40 MLOAD PUSH2 0x318 SWAP2 SWAP1 PUSH2 0xB4D JUMP JUMPDEST PUSH1 0x40 MLOAD DUP1 SWAP2 SUB SWAP1 RETURN JUMPDEST CALLVALUE DUP1 ISZERO PUSH2 0x32D JUMPI PUSH1 0x0 DUP1 REVERT JUMPDEST POP PUSH2 0x348 PUSH1 0x4 DUP1 CALLDATASIZE SUB DUP2 ADD SWAP1 PUSH2 0x343 SWAP2 SWAP1 PUSH2 0x964 JUMP JUMPDEST PUSH2 0x6EB JUMP JUMPDEST STOP JUMPDEST CALLVALUE DUP1 ISZERO PUSH2 0x356 JUMPI PUSH1 0x0 DUP1 REVERT JUMPDEST POP PUSH2 0x371 PUSH1 0x4 DUP1 CALLDATASIZE SUB DUP2 ADD SWAP1 PUSH2 0x36C SWAP2 SWAP1 PUSH2 0x937 JUMP JUMPDEST PUSH2 0x78A JUMP JUMPDEST PUSH1 0x40 MLOAD PUSH2 0x37E SWAP2 SWAP1 PUSH2 0xB4D JUMP JUMPDEST PUSH1 0x40 MLOAD DUP1 SWAP2 SUB SWAP1 RETURN JUMPDEST CALLVALUE DUP1 ISZERO PUSH2 0x393 JUMPI PUSH1 0x0 DUP1 REVERT JUMPDEST POP PUSH2 0x39C PUSH2 0x7A2 JUMP JUMPDEST PUSH1 0x40 MLOAD PUSH2 0x3A9 SWAP2 SWAP1 PUSH2 0xB4D JUMP JUMPDEST PUSH1 0x40 MLOAD DUP1 SWAP2 SUB SWAP1 RETURN JUMPDEST CALLVALUE DUP1 ISZERO PUSH2 0x3BE JUMPI PUSH1 0x0 DUP1 REVERT JUMPDEST POP PUSH2 0x3C7 PUSH2 0x7A8 JUMP JUMPDEST PUSH1 0x40 MLOAD PUSH2 0x3D4 SWAP2 SWAP1 PUSH2 0xB4D JUMP JUMPDEST PUSH1 0x40 MLOAD DUP1 SWAP2 SUB SWAP1 RETURN JUMPDEST CALLVALUE DUP1 ISZERO PUSH2 0x3E9 JUMPI PUSH1 0x0 DUP1 REVERT JUMPDEST POP PUSH2 0x3F2 PUSH2 0x7AE JUMP JUMPDEST PUSH1 0x40 MLOAD PUSH2 0x3FF SWAP2 SWAP1 PUSH2 0xAC5 JUMP JUMPDEST PUSH1 0x40 MLOAD DUP1 SWAP2 SUB SWAP1 RETURN JUMPDEST CALLVALUE DUP1 ISZERO PUSH2 0x414 JUMPI PUSH1 0x0 DUP1 REVERT JUMPDEST POP PUSH2 0x42F PUSH1 0x4 DUP1 CALLDATASIZE SUB DUP2 ADD SWAP1 PUSH2 0x42A SWAP2 SWAP1 PUSH2 0x9DF JUMP JUMPDEST PUSH2 0x7D2 JUMP JUMPDEST STOP JUMPDEST PUSH1 0x6 PUSH1 0x0 SWAP1 SLOAD SWAP1 PUSH2 0x100 EXP SWAP1 DIV PUSH20 0xFFFFFFFFFFFFFFFFFFFFFFFFFFFFFFFFFFFFFFFF AND DUP2 JUMP JUMPDEST PUSH1 0xC PUSH1 0x0 SWAP1 SLOAD SWAP1 PUSH2 0x100 EXP SWAP1 DIV PUSH1 0xFF AND DUP2 JUMP JUMPDEST PUSH1 0x4 PUSH1 0x0 SWAP1 SLOAD SWAP1 PUSH2 0x100 EXP SWAP1 DIV PUSH20 0xFFFFFFFFFFFFFFFFFFFFFFFFFFFFFFFFFFFFFFFF AND PUSH20 0xFFFFFFFFFFFFFFFFFFFFFFFFFFFFFFFFFFFFFFFF AND PUSH4 0x42842E0E DUP3 PUSH1 0x6 PUSH1 0x0 SWAP1 SLOAD SWAP1 PUSH2 0x100 EXP SWAP1 DIV PUSH20 0xFFFFFFFFFFFFFFFFFFFFFFFFFFFFFFFFFFFFFFFF AND PUSH1 0x5 SLOAD PUSH1 0x40 MLOAD DUP5 PUSH4 0xFFFFFFFF AND PUSH1 0xE0 SHL DUP2 MSTORE PUSH1 0x4 ADD PUSH2 0x4ED SWAP4 SWAP3 SWAP2 SWAP1 PUSH2 0xAE0 JUMP JUMPDEST PUSH1 0x0 PUSH1 0x40 MLOAD DUP1 DUP4 SUB DUP2 PUSH1 0x0 DUP8 DUP1 EXTCODESIZE ISZERO DUP1 ISZERO PUSH2 0x507 JUMPI PUSH1 0x0 DUP1 REVERT JUMPDEST POP GAS CALL ISZERO DUP1 ISZERO PUSH2 0x51B JUMPI RETURNDATASIZE PUSH1 0x0 DUP1 RETURNDATACOPY RETURNDATASIZE PUSH1 0x0 REVERT JUMPDEST POP POP POP POP POP JUMP JUMPDEST PUSH1 0x0 PUSH1 0xC PUSH1 0x0 PUSH2 0x100 EXP DUP2 SLOAD DUP2 PUSH1 0xFF MUL NOT AND SWAP1 DUP4 ISZERO ISZERO MUL OR SWAP1 SSTORE POP PUSH2 0x568 PUSH1 0x1 PUSH1 0x0 SWAP1 SLOAD SWAP1 PUSH2 0x100 EXP SWAP1 DIV PUSH20 0xFFFFFFFFFFFFFFFFFFFFFFFFFFFFFFFFFFFFFFFF AND PUSH2 0x46A JUMP JUMPDEST JUMP JUMPDEST PUSH1 0x4 PUSH1 0x0 SWAP1 SLOAD SWAP1 PUSH2 0x100 EXP SWAP1 DIV PUSH20 0xFFFFFFFFFFFFFFFFFFFFFFFFFFFFFFFFFFFFFFFF AND DUP2 JUMP JUMPDEST PUSH1 0x1 PUSH1 0x0 SWAP1 SLOAD SWAP1 PUSH2 0x100 EXP SWAP1 DIV PUSH20 0xFFFFFFFFFFFFFFFFFFFFFFFFFFFFFFFFFFFFFFFF AND DUP2 JUMP JUMPDEST PUSH1 0xB SLOAD DUP2 JUMP JUMPDEST PUSH1 0x7 SLOAD DUP2 JUMP JUMPDEST PUSH1 0x2 SLOAD DUP2 JUMP JUMPDEST PUSH1 0x7 SLOAD DUP3 GT ISZERO PUSH2 0x61B JUMPI DUP2 PUSH1 0x7 DUP2 SWAP1 SSTORE POP DUP1 PUSH1 0x6 PUSH1 0x0 PUSH2 0x100 EXP DUP2 SLOAD DUP2 PUSH20 0xFFFFFFFFFFFFFFFFFFFFFFFFFFFFFFFFFFFFFFFF MUL NOT AND SWAP1 DUP4 PUSH20 0xFFFFFFFFFFFFFFFFFFFFFFFFFFFFFFFFFFFFFFFF AND MUL OR SWAP1 SSTORE POP JUMPDEST POP POP JUMP JUMPDEST PUSH1 0x2 SLOAD TIMESTAMP LT PUSH2 0x62D JUMPI PUSH1 0x0 DUP1 REVERT JUMPDEST PUSH1 0x1 ISZERO ISZERO PUSH1 0xC PUSH1 0x0 SWAP1 SLOAD SWAP1 PUSH2 0x100 EXP SWAP1 DIV PUSH1 0xFF AND ISZERO ISZERO EQ PUSH2 0x64D JUMPI PUSH1 0x0 DUP1 REVERT JUMPDEST PUSH1 0xB SLOAD DUP3 EQ ISZERO PUSH2 0x660 JUMPI PUSH2 0x65F PUSH2 0x522 JUMP JUMPDEST JUMPDEST PUSH2 0x66A DUP3 DUP3 PUSH2 0x5C8 JUMP JUMPDEST DUP2 PUSH1 0x8 PUSH1 0x0 DUP4 PUSH20 0xFFFFFFFFFFFFFFFFFFFFFFFFFFFFFFFFFFFFFFFF AND PUSH20 0xFFFFFFFFFFFFFFFFFFFFFFFFFFFFFFFFFFFFFFFF AND DUP2 MSTORE PUSH1 0x20 ADD SWAP1 DUP2 MSTORE PUSH1 0x20 ADD PUSH1 0x0 KECCAK256 DUP2 SWAP1 SSTORE POP PUSH1 0xA PUSH1 0x0 DUP2 SLOAD DUP1 SWAP3 SWAP2 SWAP1 PUSH2 0x6C1 SWAP1 PUSH2 0xBF8 JUMP JUMPDEST SWAP2 SWAP1 POP SSTORE POP PUSH1 0x9 SLOAD PUSH1 0xA SLOAD EQ ISZERO PUSH2 0x6DB JUMPI PUSH2 0x6DA PUSH2 0x522 JUMP JUMPDEST JUMPDEST POP POP JUMP JUMPDEST PUSH1 0x9 SLOAD DUP2 JUMP JUMPDEST PUSH1 0x3 SLOAD DUP2 JUMP JUMPDEST DUP4 PUSH1 0x4 PUSH1 0x0 PUSH2 0x100 EXP DUP2 SLOAD DUP2 PUSH20 0xFFFFFFFFFFFFFFFFFFFFFFFFFFFFFFFFFFFFFFFF MUL NOT AND SWAP1 DUP4 PUSH20 0xFFFFFFFFFFFFFFFFFFFFFFFFFFFFFFFFFFFFFFFF AND MUL OR SWAP1 SSTORE POP DUP3 PUSH1 0x5 DUP2 SWAP1 SSTORE POP PUSH1 0x0 PUSH1 0x3 DUP2 SWAP1 SSTORE POP DUP5 PUSH1 0x1 PUSH1 0x0 PUSH2 0x100 EXP DUP2 SLOAD DUP2 PUSH20 0xFFFFFFFFFFFFFFFFFFFFFFFFFFFFFFFFFFFFFFFF MUL NOT AND SWAP1 DUP4 PUSH20 0xFFFFFFFFFFFFFFFFFFFFFFFFFFFFFFFFFFFFFFFF AND MUL OR SWAP1 SSTORE POP DUP1 PUSH1 0xB DUP2 SWAP1 SSTORE POP POP POP POP POP POP JUMP JUMPDEST PUSH1 0x8 PUSH1 0x20 MSTORE DUP1 PUSH1 0x0 MSTORE PUSH1 0x40 PUSH1 0x0 KECCAK256 PUSH1 0x0 SWAP2 POP SWAP1 POP SLOAD DUP2 JUMP JUMPDEST PUSH1 0x5 SLOAD DUP2 JUMP JUMPDEST PUSH1 0xA SLOAD DUP2 JUMP JUMPDEST PUSH1 0x0 DUP1 SLOAD SWAP1 PUSH2 0x100 EXP SWAP1 DIV PUSH20 0xFFFFFFFFFFFFFFFFFFFFFFFFFFFFFFFFFFFFFFFF AND DUP2 JUMP JUMPDEST PUSH1 0x7 SLOAD DUP2 EQ ISZERO DUP1 ISZERO PUSH2 0x832 JUMPI POP PUSH1 0x6 PUSH1 0x0 SWAP1 SLOAD SWAP1 PUSH2 0x100 EXP SWAP1 DIV PUSH20 0xFFFFFFFFFFFFFFFFFFFFFFFFFFFFFFFFFFFFFFFF AND PUSH20 0xFFFFFFFFFFFFFFFFFFFFFFFFFFFFFFFFFFFFFFFF AND DUP3 PUSH20 0xFFFFFFFFFFFFFFFFFFFFFFFFFFFFFFFFFFFFFFFF AND EQ ISZERO JUMPDEST ISZERO PUSH2 0x909 JUMPI PUSH1 0x0 PUSH1 0x8 PUSH1 0x0 DUP5 PUSH20 0xFFFFFFFFFFFFFFFFFFFFFFFFFFFFFFFFFFFFFFFF AND PUSH20 0xFFFFFFFFFFFFFFFFFFFFFFFFFFFFFFFFFFFFFFFF AND DUP2 MSTORE PUSH1 0x20 ADD SWAP1 DUP2 MSTORE PUSH1 0x20 ADD PUSH1 0x0 KECCAK256 SLOAD SWAP1 POP PUSH1 0x0 PUSH1 0x8 PUSH1 0x0 DUP6 PUSH20 0xFFFFFFFFFFFFFFFFFFFFFFFFFFFFFFFFFFFFFFFF AND PUSH20 0xFFFFFFFFFFFFFFFFFFFFFFFFFFFFFFFFFFFFFFFF AND DUP2 MSTORE PUSH1 0x20 ADD SWAP1 DUP2 MSTORE PUSH1 0x20 ADD PUSH1 0x0 KECCAK256 DUP2 SWAP1 SSTORE POP DUP3 PUSH20 0xFFFFFFFFFFFFFFFFFFFFFFFFFFFFFFFFFFFFFFFF AND PUSH2 0x8FC DUP3 SWAP1 DUP2 ISZERO MUL SWAP1 PUSH1 0x40 MLOAD PUSH1 0x0 PUSH1 0x40 MLOAD DUP1 DUP4 SUB DUP2 DUP6 DUP9 DUP9 CALL SWAP4 POP POP POP POP ISZERO DUP1 ISZERO PUSH2 0x906 JUMPI RETURNDATASIZE PUSH1 0x0 DUP1 RETURNDATACOPY RETURNDATASIZE PUSH1 0x0 REVERT JUMPDEST POP POP JUMPDEST POP POP JUMP JUMPDEST PUSH1 0x0 DUP2 CALLDATALOAD SWAP1 POP PUSH2 0x91C DUP2 PUSH2 0xC75 JUMP JUMPDEST SWAP3 SWAP2 POP POP JUMP JUMPDEST PUSH1 0x0 DUP2 CALLDATALOAD SWAP1 POP PUSH2 0x931 DUP2 PUSH2 0xC8C JUMP JUMPDEST SWAP3 SWAP2 POP POP JUMP JUMPDEST PUSH1 0x0 PUSH1 0x20 DUP3 DUP5 SUB SLT ISZERO PUSH2 0x94D JUMPI PUSH2 0x94C PUSH2 0xC70 JUMP JUMPDEST JUMPDEST PUSH1 0x0 PUSH2 0x95B DUP5 DUP3 DUP6 ADD PUSH2 0x90D JUMP JUMPDEST SWAP2 POP POP SWAP3 SWAP2 POP POP JUMP JUMPDEST PUSH1 0x0 DUP1 PUSH1 0x0 DUP1 PUSH1 0x0 PUSH1 0xA0 DUP7 DUP9 SUB SLT ISZERO PUSH2 0x980 JUMPI PUSH2 0x97F PUSH2 0xC70 JUMP JUMPDEST JUMPDEST PUSH1 0x0 PUSH2 0x98E DUP9 DUP3 DUP10 ADD PUSH2 0x90D JUMP JUMPDEST SWAP6 POP POP PUSH1 0x20 PUSH2 0x99F DUP9 DUP3 DUP10 ADD PUSH2 0x90D JUMP JUMPDEST SWAP5 POP POP PUSH1 0x40 PUSH2 0x9B0 DUP9 DUP3 DUP10 ADD PUSH2 0x922 JUMP JUMPDEST SWAP4 POP POP PUSH1 0x60 PUSH2 0x9C1 DUP9 DUP3 DUP10 ADD PUSH2 0x922 JUMP JUMPDEST SWAP3 POP POP PUSH1 0x80 PUSH2 0x9D2 DUP9 DUP3 DUP10 ADD PUSH2 0x922 JUMP JUMPDEST SWAP2 POP POP SWAP3 SWAP6 POP SWAP3 SWAP6 SWAP1 SWAP4 POP JUMP JUMPDEST PUSH1 0x0 DUP1 PUSH1 0x40 DUP4 DUP6 SUB SLT ISZERO PUSH2 0x9F6 JUMPI PUSH2 0x9F5 PUSH2 0xC70 JUMP JUMPDEST JUMPDEST PUSH1 0x0 PUSH2 0xA04 DUP6 DUP3 DUP7 ADD PUSH2 0x90D JUMP JUMPDEST SWAP3 POP POP PUSH1 0x20 PUSH2 0xA15 DUP6 DUP3 DUP7 ADD PUSH2 0x922 JUMP JUMPDEST SWAP2 POP POP SWAP3 POP SWAP3 SWAP1 POP JUMP JUMPDEST PUSH1 0x0 DUP1 PUSH1 0x40 DUP4 DUP6 SUB SLT ISZERO PUSH2 0xA36 JUMPI PUSH2 0xA35 PUSH2 0xC70 JUMP JUMPDEST JUMPDEST PUSH1 0x0 PUSH2 0xA44 DUP6 DUP3 DUP7 ADD PUSH2 0x922 JUMP JUMPDEST SWAP3 POP POP PUSH1 0x20 PUSH2 0xA55 DUP6 DUP3 DUP7 ADD PUSH2 0x90D JUMP JUMPDEST SWAP2 POP POP SWAP3 POP SWAP3 SWAP1 POP JUMP JUMPDEST PUSH2 0xA68 DUP2 PUSH2 0xB7A JUMP JUMPDEST DUP3 MSTORE POP POP JUMP JUMPDEST PUSH2 0xA77 DUP2 PUSH2 0xB68 JUMP JUMPDEST DUP3 MSTORE POP POP JUMP JUMPDEST PUSH2 0xA86 DUP2 PUSH2 0xB8C JUMP JUMPDEST DUP3 MSTORE POP POP JUMP JUMPDEST PUSH2 0xA95 DUP2 PUSH2 0xBC2 JUMP JUMPDEST DUP3 MSTORE POP POP JUMP JUMPDEST PUSH2 0xAA4 DUP2 PUSH2 0xBB8 JUMP JUMPDEST DUP3 MSTORE POP POP JUMP JUMPDEST PUSH1 0x0 PUSH1 0x20 DUP3 ADD SWAP1 POP PUSH2 0xABF PUSH1 0x0 DUP4 ADD DUP5 PUSH2 0xA6E JUMP JUMPDEST SWAP3 SWAP2 POP POP JUMP JUMPDEST PUSH1 0x0 PUSH1 0x20 DUP3 ADD SWAP1 POP PUSH2 0xADA PUSH1 0x0 DUP4 ADD DUP5 PUSH2 0xA5F JUMP JUMPDEST SWAP3 SWAP2 POP POP JUMP JUMPDEST PUSH1 0x0 PUSH1 0x60 DUP3 ADD SWAP1 POP PUSH2 0xAF5 PUSH1 0x0 DUP4 ADD DUP7 PUSH2 0xA6E JUMP JUMPDEST PUSH2 0xB02 PUSH1 0x20 DUP4 ADD DUP6 PUSH2 0xA6E JUMP JUMPDEST PUSH2 0xB0F PUSH1 0x40 DUP4 ADD DUP5 PUSH2 0xA9B JUMP JUMPDEST SWAP5 SWAP4 POP POP POP POP JUMP JUMPDEST PUSH1 0x0 PUSH1 0x20 DUP3 ADD SWAP1 POP PUSH2 0xB2C PUSH1 0x0 DUP4 ADD DUP5 PUSH2 0xA7D JUMP JUMPDEST SWAP3 SWAP2 POP POP JUMP JUMPDEST PUSH1 0x0 PUSH1 0x20 DUP3 ADD SWAP1 POP PUSH2 0xB47 PUSH1 0x0 DUP4 ADD DUP5 PUSH2 0xA8C JUMP JUMPDEST SWAP3 SWAP2 POP POP JUMP JUMPDEST PUSH1 0x0 PUSH1 0x20 DUP3 ADD SWAP1 POP PUSH2 0xB62 PUSH1 0x0 DUP4 ADD DUP5 PUSH2 0xA9B JUMP JUMPDEST SWAP3 SWAP2 POP POP JUMP JUMPDEST PUSH1 0x0 PUSH2 0xB73 DUP3 PUSH2 0xB98 JUMP JUMPDEST SWAP1 POP SWAP2 SWAP1 POP JUMP JUMPDEST PUSH1 0x0 PUSH2 0xB85 DUP3 PUSH2 0xB98 JUMP JUMPDEST SWAP1 POP SWAP2 SWAP1 POP JUMP JUMPDEST PUSH1 0x0 DUP2 ISZERO ISZERO SWAP1 POP SWAP2 SWAP1 POP JUMP JUMPDEST PUSH1 0x0 PUSH20 0xFFFFFFFFFFFFFFFFFFFFFFFFFFFFFFFFFFFFFFFF DUP3 AND SWAP1 POP SWAP2 SWAP1 POP JUMP JUMPDEST PUSH1 0x0 DUP2 SWAP1 POP SWAP2 SWAP1 POP JUMP JUMPDEST PUSH1 0x0 PUSH2 0xBCD DUP3 PUSH2 0xBD4 JUMP JUMPDEST SWAP1 POP SWAP2 SWAP1 POP JUMP JUMPDEST PUSH1 0x0 PUSH2 0xBDF DUP3 PUSH2 0xBE6 JUMP JUMPDEST SWAP1 POP SWAP2 SWAP1 POP JUMP JUMPDEST PUSH1 0x0 PUSH2 0xBF1 DUP3 PUSH2 0xB98 JUMP JUMPDEST SWAP1 POP SWAP2 SWAP1 POP JUMP JUMPDEST PUSH1 0x0 PUSH2 0xC03 DUP3 PUSH2 0xBB8 JUMP JUMPDEST SWAP2 POP PUSH32 0xFFFFFFFFFFFFFFFFFFFFFFFFFFFFFFFFFFFFFFFFFFFFFFFFFFFFFFFFFFFFFFFF DUP3 EQ ISZERO PUSH2 0xC36 JUMPI PUSH2 0xC35 PUSH2 0xC41 JUMP JUMPDEST JUMPDEST PUSH1 0x1 DUP3 ADD SWAP1 POP SWAP2 SWAP1 POP JUMP JUMPDEST PUSH32 0x4E487B7100000000000000000000000000000000000000000000000000000000 PUSH1 0x0 MSTORE PUSH1 0x11 PUSH1 0x4 MSTORE PUSH1 0x24 PUSH1 0x0 REVERT JUMPDEST PUSH1 0x0 DUP1 REVERT JUMPDEST PUSH2 0xC7E DUP2 PUSH2 0xB68 JUMP JUMPDEST DUP2 EQ PUSH2 0xC89 JUMPI PUSH1 0x0 DUP1 REVERT JUMPDEST POP JUMP JUMPDEST PUSH2 0xC95 DUP2 PUSH2 0xBB8 JUMP JUMPDEST DUP2 EQ PUSH2 0xCA0 JUMPI PUSH1 0x0 DUP1 REVERT JUMPDEST POP JUMP INVALID LOG2 PUSH5 0x6970667358 0x22 SLT KECCAK256 MUL 0xC3 SELFDESTRUCT NUMBER PC LOG2 PUSH14 0x48911BBC1B9E034610E179FD2CDE 0xCA SWAP13 PUSH4 0xFBDC915E PUSH10 0x968FC864736F6C634300 ADDMOD SMOD STOP CALLER "
		},
		"gasEstimates": {
			"creation": {
				"codeDepositCost": "657800",
				"executionCost": "24956",
				"totalCost": "682756"
			},
			"external": {
				"Auction(address,address,uint256,uint256,uint256)": "infinite",
				"allBids(address)": "2836",
				"amountOfBids()": "2495",
				"auctionCloseTime()": "2540",
				"auctionIsOpen()": "2517",
				"beneficiaryAddress()": "2599",
				"bid(uint256,address)": "infinite",
				"buyNowPrice()": "2496",
				"closeAuction()": "infinite",
				"maxBids()": "2496",
				"nft()": "2623",
				"nftId()": "2473",
				"nftOwner()": "2559",
				"testnum()": "2518",
				"topBid()": "2518",
				"topBidder()": "2538",
				"transferNFT(address)": "infinite",
				"updateTopBid(uint256,address)": "49158",
				"withdraw(address,uint256)": "infinite"
			}
		},
		"methodIdentifiers": {
			"Auction(address,address,uint256,uint256,uint256)": "a04b5b35",
			"allBids(address)": "bd201607",
			"amountOfBids()": "d22596c9",
			"auctionCloseTime()": "675339fd",
			"auctionIsOpen()": "2b5095b6",
			"beneficiaryAddress()": "d9c4870e",
			"bid(uint256,address)": "9f04996d",
			"buyNowPrice()": "5ecbdce9",
			"closeAuction()": "378252f2",
			"maxBids()": "9f235ccd",
			"nft()": "47ccca02",
			"nftId()": "c6bc5182",
			"nftOwner()": "4c39a749",
			"testnum()": "9fa879d9",
			"topBid()": "636bf730",
			"topBidder()": "01333f06",
			"transferNFT(address)": "36e986ef",
			"updateTopBid(uint256,address)": "8800b621",
			"withdraw(address,uint256)": "f3fef3a3"
		}
	},
	"abi": [
		{
			"inputs": [
				{
					"internalType": "address",
					"name": "nftowner",
					"type": "address"
				},
				{
					"internalType": "address",
					"name": "_nft",
					"type": "address"
				},
				{
					"internalType": "uint256",
					"name": "_nftId",
					"type": "uint256"
				},
				{
					"internalType": "uint256",
					"name": "maxBids",
					"type": "uint256"
				},
				{
					"internalType": "uint256",
					"name": "buyNow",
					"type": "uint256"
				}
			],
			"name": "Auction",
			"outputs": [],
			"stateMutability": "nonpayable",
			"type": "function"
		},
		{
			"inputs": [
				{
					"internalType": "address",
					"name": "",
					"type": "address"
				}
			],
			"name": "allBids",
			"outputs": [
				{
					"internalType": "uint256",
					"name": "",
					"type": "uint256"
				}
			],
			"stateMutability": "view",
			"type": "function"
		},
		{
			"inputs": [],
			"name": "amountOfBids",
			"outputs": [
				{
					"internalType": "uint256",
					"name": "",
					"type": "uint256"
				}
			],
			"stateMutability": "view",
			"type": "function"
		},
		{
			"inputs": [],
			"name": "auctionCloseTime",
			"outputs": [
				{
					"internalType": "uint256",
					"name": "",
					"type": "uint256"
				}
			],
			"stateMutability": "view",
			"type": "function"
		},
		{
			"inputs": [],
			"name": "auctionIsOpen",
			"outputs": [
				{
					"internalType": "bool",
					"name": "",
					"type": "bool"
				}
			],
			"stateMutability": "view",
			"type": "function"
		},
		{
			"inputs": [],
			"name": "beneficiaryAddress",
			"outputs": [
				{
					"internalType": "address payable",
					"name": "",
					"type": "address"
				}
			],
			"stateMutability": "view",
			"type": "function"
		},
		{
			"inputs": [
				{
					"internalType": "uint256",
					"name": "bidAmount",
					"type": "uint256"
				},
				{
					"internalType": "address",
					"name": "bidder",
					"type": "address"
				}
			],
			"name": "bid",
			"outputs": [],
			"stateMutability": "nonpayable",
			"type": "function"
		},
		{
			"inputs": [],
			"name": "buyNowPrice",
			"outputs": [
				{
					"internalType": "uint256",
					"name": "",
					"type": "uint256"
				}
			],
			"stateMutability": "view",
			"type": "function"
		},
		{
			"inputs": [],
			"name": "closeAuction",
			"outputs": [],
			"stateMutability": "nonpayable",
			"type": "function"
		},
		{
			"inputs": [],
			"name": "maxBids",
			"outputs": [
				{
					"internalType": "uint256",
					"name": "",
					"type": "uint256"
				}
			],
			"stateMutability": "view",
			"type": "function"
		},
		{
			"inputs": [],
			"name": "nft",
			"outputs": [
				{
					"internalType": "contract IERC721",
					"name": "",
					"type": "address"
				}
			],
			"stateMutability": "view",
			"type": "function"
		},
		{
			"inputs": [],
			"name": "nftId",
			"outputs": [
				{
					"internalType": "uint256",
					"name": "",
					"type": "uint256"
				}
			],
			"stateMutability": "view",
			"type": "function"
		},
		{
			"inputs": [],
			"name": "nftOwner",
			"outputs": [
				{
					"internalType": "address",
					"name": "",
					"type": "address"
				}
			],
			"stateMutability": "view",
			"type": "function"
		},
		{
			"inputs": [],
			"name": "testnum",
			"outputs": [
				{
					"internalType": "uint256",
					"name": "",
					"type": "uint256"
				}
			],
			"stateMutability": "view",
			"type": "function"
		},
		{
			"inputs": [],
			"name": "topBid",
			"outputs": [
				{
					"internalType": "uint256",
					"name": "",
					"type": "uint256"
				}
			],
			"stateMutability": "view",
			"type": "function"
		},
		{
			"inputs": [],
			"name": "topBidder",
			"outputs": [
				{
					"internalType": "address",
					"name": "",
					"type": "address"
				}
			],
			"stateMutability": "view",
			"type": "function"
		},
		{
			"inputs": [
				{
					"internalType": "address",
					"name": "owner",
					"type": "address"
				}
			],
			"name": "transferNFT",
			"outputs": [],
			"stateMutability": "payable",
			"type": "function"
		},
		{
			"inputs": [
				{
					"internalType": "uint256",
					"name": "bidAmount",
					"type": "uint256"
				},
				{
					"internalType": "address",
					"name": "bidder",
					"type": "address"
				}
			],
			"name": "updateTopBid",
			"outputs": [],
			"stateMutability": "nonpayable",
			"type": "function"
		},
		{
			"inputs": [
				{
					"internalType": "address",
					"name": "withdrawer",
					"type": "address"
				},
				{
					"internalType": "uint256",
					"name": "bidAmount",
					"type": "uint256"
				}
			],
			"name": "withdraw",
			"outputs": [],
			"stateMutability": "nonpayable",
			"type": "function"
		}
	]
}