{
	"data": {
		"bytecode": {
			"linkReferences": {},
			"object": "608060405234801561001057600080fd5b50610a69806100206000396000f3fe6080604052600436106100fe5760003560e01c80638800b62111610095578063a04b5b3511610064578063a04b5b35146102e0578063bd20160714610309578063c6bc518214610346578063d22596c914610371578063d9c4870e1461039c576100fe565b80638800b621146102385780639f04996d146102615780639f235ccd1461028a5780639fa879d9146102b5576100fe565b806347ccca02116100d157806347ccca021461018c5780634c39a749146101b75780635ecbdce9146101e2578063636bf7301461020d576100fe565b806301333f061461010357806319c2a5b51461012e57806336e986ef14610159578063378252f214610175575b600080fd5b34801561010f57600080fd5b506101186103c7565b6040516101259190610861565b60405180910390f35b34801561013a57600080fd5b506101436103ed565b60405161015091906108e9565b60405180910390f35b610173600480360381019061016e919061073d565b6103f3565b005b34801561018157600080fd5b5061018a6104ab565b005b34801561019857600080fd5b506101a16104d8565b6040516101ae91906108ce565b60405180910390f35b3480156101c357600080fd5b506101cc6104fe565b6040516101d99190610861565b60405180910390f35b3480156101ee57600080fd5b506101f7610524565b60405161020491906108e9565b60405180910390f35b34801561021957600080fd5b5061022261052a565b60405161022f91906108e9565b60405180910390f35b34801561024457600080fd5b5061025f600480360381019061025a91906107e5565b610530565b005b34801561026d57600080fd5b50610288600480360381019061028391906107e5565b610587565b005b34801561029657600080fd5b5061029f610619565b6040516102ac91906108e9565b60405180910390f35b3480156102c157600080fd5b506102ca61061f565b6040516102d791906108e9565b60405180910390f35b3480156102ec57600080fd5b506103076004803603810190610302919061076a565b610625565b005b34801561031557600080fd5b50610330600480360381019061032b919061073d565b6106cb565b60405161033d91906108e9565b60405180910390f35b34801561035257600080fd5b5061035b6106e3565b60405161036891906108e9565b60405180910390f35b34801561037d57600080fd5b506103866106e9565b60405161039391906108e9565b60405180910390f35b3480156103a857600080fd5b506103b16106ef565b6040516103be919061087c565b60405180910390f35b600660009054906101000a900473ffffffffffffffffffffffffffffffffffffffff1681565b60025481565b600460009054906101000a900473ffffffffffffffffffffffffffffffffffffffff1673ffffffffffffffffffffffffffffffffffffffff166342842e0e82600660009054906101000a900473ffffffffffffffffffffffffffffffffffffffff166005546040518463ffffffff1660e01b815260040161047693929190610897565b600060405180830381600087803b15801561049057600080fd5b505af11580156104a4573d6000803e3d6000fd5b5050505050565b6104d6600160009054906101000a900473ffffffffffffffffffffffffffffffffffffffff166103f3565b565b600460009054906101000a900473ffffffffffffffffffffffffffffffffffffffff1681565b600160009054906101000a900473ffffffffffffffffffffffffffffffffffffffff1681565b600b5481565b60075481565b600754821115610583578160078190555080600660006101000a81548173ffffffffffffffffffffffffffffffffffffffff021916908373ffffffffffffffffffffffffffffffffffffffff1602179055505b5050565b600b5482141561059a576105996104ab565b5b6105a48282610530565b81600860008373ffffffffffffffffffffffffffffffffffffffff1673ffffffffffffffffffffffffffffffffffffffff16815260200190815260200160002081905550600a60008154809291906105fb90610988565b9190505550600954600a541415610615576106146104ab565b5b5050565b60095481565b60035481565b83600460006101000a81548173ffffffffffffffffffffffffffffffffffffffff021916908373ffffffffffffffffffffffffffffffffffffffff16021790555082600581905550600060038190555084600160006101000a81548173ffffffffffffffffffffffffffffffffffffffff021916908373ffffffffffffffffffffffffffffffffffffffff1602179055508160098190555080600b819055505050505050565b60086020528060005260406000206000915090505481565b60055481565b600a5481565b60008054906101000a900473ffffffffffffffffffffffffffffffffffffffff1681565b60008135905061072281610a05565b92915050565b60008135905061073781610a1c565b92915050565b60006020828403121561075357610752610a00565b5b600061076184828501610713565b91505092915050565b600080600080600060a0868803121561078657610785610a00565b5b600061079488828901610713565b95505060206107a588828901610713565b94505060406107b688828901610728565b93505060606107c788828901610728565b92505060806107d888828901610728565b9150509295509295909350565b600080604083850312156107fc576107fb610a00565b5b600061080a85828601610728565b925050602061081b85828601610713565b9150509250929050565b61082e81610916565b82525050565b61083d81610904565b82525050565b61084c81610952565b82525050565b61085b81610948565b82525050565b60006020820190506108766000830184610834565b92915050565b60006020820190506108916000830184610825565b92915050565b60006060820190506108ac6000830186610834565b6108b96020830185610834565b6108c66040830184610852565b949350505050565b60006020820190506108e36000830184610843565b92915050565b60006020820190506108fe6000830184610852565b92915050565b600061090f82610928565b9050919050565b600061092182610928565b9050919050565b600073ffffffffffffffffffffffffffffffffffffffff82169050919050565b6000819050919050565b600061095d82610964565b9050919050565b600061096f82610976565b9050919050565b600061098182610928565b9050919050565b600061099382610948565b91507fffffffffffffffffffffffffffffffffffffffffffffffffffffffffffffffff8214156109c6576109c56109d1565b5b600182019050919050565b7f4e487b7100000000000000000000000000000000000000000000000000000000600052601160045260246000fd5b600080fd5b610a0e81610904565b8114610a1957600080fd5b50565b610a2581610948565b8114610a3057600080fd5b5056fea2646970667358221220125d77b056afcdc6b6eab68afcf060fb8e0b7c41d33196021b8f106112e381c164736f6c63430008070033",
			"opcodes": "PUSH1 0x80 PUSH1 0x40 MSTORE CALLVALUE DUP1 ISZERO PUSH2 0x10 JUMPI PUSH1 0x0 DUP1 REVERT JUMPDEST POP PUSH2 0xA69 DUP1 PUSH2 0x20 PUSH1 0x0 CODECOPY PUSH1 0x0 RETURN INVALID PUSH1 0x80 PUSH1 0x40 MSTORE PUSH1 0x4 CALLDATASIZE LT PUSH2 0xFE JUMPI PUSH1 0x0 CALLDATALOAD PUSH1 0xE0 SHR DUP1 PUSH4 0x8800B621 GT PUSH2 0x95 JUMPI DUP1 PUSH4 0xA04B5B35 GT PUSH2 0x64 JUMPI DUP1 PUSH4 0xA04B5B35 EQ PUSH2 0x2E0 JUMPI DUP1 PUSH4 0xBD201607 EQ PUSH2 0x309 JUMPI DUP1 PUSH4 0xC6BC5182 EQ PUSH2 0x346 JUMPI DUP1 PUSH4 0xD22596C9 EQ PUSH2 0x371 JUMPI DUP1 PUSH4 0xD9C4870E EQ PUSH2 0x39C JUMPI PUSH2 0xFE JUMP JUMPDEST DUP1 PUSH4 0x8800B621 EQ PUSH2 0x238 JUMPI DUP1 PUSH4 0x9F04996D EQ PUSH2 0x261 JUMPI DUP1 PUSH4 0x9F235CCD EQ PUSH2 0x28A JUMPI DUP1 PUSH4 0x9FA879D9 EQ PUSH2 0x2B5 JUMPI PUSH2 0xFE JUMP JUMPDEST DUP1 PUSH4 0x47CCCA02 GT PUSH2 0xD1 JUMPI DUP1 PUSH4 0x47CCCA02 EQ PUSH2 0x18C JUMPI DUP1 PUSH4 0x4C39A749 EQ PUSH2 0x1B7 JUMPI DUP1 PUSH4 0x5ECBDCE9 EQ PUSH2 0x1E2 JUMPI DUP1 PUSH4 0x636BF730 EQ PUSH2 0x20D JUMPI PUSH2 0xFE JUMP JUMPDEST DUP1 PUSH4 0x1333F06 EQ PUSH2 0x103 JUMPI DUP1 PUSH4 0x19C2A5B5 EQ PUSH2 0x12E JUMPI DUP1 PUSH4 0x36E986EF EQ PUSH2 0x159 JUMPI DUP1 PUSH4 0x378252F2 EQ PUSH2 0x175 JUMPI JUMPDEST PUSH1 0x0 DUP1 REVERT JUMPDEST CALLVALUE DUP1 ISZERO PUSH2 0x10F JUMPI PUSH1 0x0 DUP1 REVERT JUMPDEST POP PUSH2 0x118 PUSH2 0x3C7 JUMP JUMPDEST PUSH1 0x40 MLOAD PUSH2 0x125 SWAP2 SWAP1 PUSH2 0x861 JUMP JUMPDEST PUSH1 0x40 MLOAD DUP1 SWAP2 SUB SWAP1 RETURN JUMPDEST CALLVALUE DUP1 ISZERO PUSH2 0x13A JUMPI PUSH1 0x0 DUP1 REVERT JUMPDEST POP PUSH2 0x143 PUSH2 0x3ED JUMP JUMPDEST PUSH1 0x40 MLOAD PUSH2 0x150 SWAP2 SWAP1 PUSH2 0x8E9 JUMP JUMPDEST PUSH1 0x40 MLOAD DUP1 SWAP2 SUB SWAP1 RETURN JUMPDEST PUSH2 0x173 PUSH1 0x4 DUP1 CALLDATASIZE SUB DUP2 ADD SWAP1 PUSH2 0x16E SWAP2 SWAP1 PUSH2 0x73D JUMP JUMPDEST PUSH2 0x3F3 JUMP JUMPDEST STOP JUMPDEST CALLVALUE DUP1 ISZERO PUSH2 0x181 JUMPI PUSH1 0x0 DUP1 REVERT JUMPDEST POP PUSH2 0x18A PUSH2 0x4AB JUMP JUMPDEST STOP JUMPDEST CALLVALUE DUP1 ISZERO PUSH2 0x198 JUMPI PUSH1 0x0 DUP1 REVERT JUMPDEST POP PUSH2 0x1A1 PUSH2 0x4D8 JUMP JUMPDEST PUSH1 0x40 MLOAD PUSH2 0x1AE SWAP2 SWAP1 PUSH2 0x8CE JUMP JUMPDEST PUSH1 0x40 MLOAD DUP1 SWAP2 SUB SWAP1 RETURN JUMPDEST CALLVALUE DUP1 ISZERO PUSH2 0x1C3 JUMPI PUSH1 0x0 DUP1 REVERT JUMPDEST POP PUSH2 0x1CC PUSH2 0x4FE JUMP JUMPDEST PUSH1 0x40 MLOAD PUSH2 0x1D9 SWAP2 SWAP1 PUSH2 0x861 JUMP JUMPDEST PUSH1 0x40 MLOAD DUP1 SWAP2 SUB SWAP1 RETURN JUMPDEST CALLVALUE DUP1 ISZERO PUSH2 0x1EE JUMPI PUSH1 0x0 DUP1 REVERT JUMPDEST POP PUSH2 0x1F7 PUSH2 0x524 JUMP JUMPDEST PUSH1 0x40 MLOAD PUSH2 0x204 SWAP2 SWAP1 PUSH2 0x8E9 JUMP JUMPDEST PUSH1 0x40 MLOAD DUP1 SWAP2 SUB SWAP1 RETURN JUMPDEST CALLVALUE DUP1 ISZERO PUSH2 0x219 JUMPI PUSH1 0x0 DUP1 REVERT JUMPDEST POP PUSH2 0x222 PUSH2 0x52A JUMP JUMPDEST PUSH1 0x40 MLOAD PUSH2 0x22F SWAP2 SWAP1 PUSH2 0x8E9 JUMP JUMPDEST PUSH1 0x40 MLOAD DUP1 SWAP2 SUB SWAP1 RETURN JUMPDEST CALLVALUE DUP1 ISZERO PUSH2 0x244 JUMPI PUSH1 0x0 DUP1 REVERT JUMPDEST POP PUSH2 0x25F PUSH1 0x4 DUP1 CALLDATASIZE SUB DUP2 ADD SWAP1 PUSH2 0x25A SWAP2 SWAP1 PUSH2 0x7E5 JUMP JUMPDEST PUSH2 0x530 JUMP JUMPDEST STOP JUMPDEST CALLVALUE DUP1 ISZERO PUSH2 0x26D JUMPI PUSH1 0x0 DUP1 REVERT JUMPDEST POP PUSH2 0x288 PUSH1 0x4 DUP1 CALLDATASIZE SUB DUP2 ADD SWAP1 PUSH2 0x283 SWAP2 SWAP1 PUSH2 0x7E5 JUMP JUMPDEST PUSH2 0x587 JUMP JUMPDEST STOP JUMPDEST CALLVALUE DUP1 ISZERO PUSH2 0x296 JUMPI PUSH1 0x0 DUP1 REVERT JUMPDEST POP PUSH2 0x29F PUSH2 0x619 JUMP JUMPDEST PUSH1 0x40 MLOAD PUSH2 0x2AC SWAP2 SWAP1 PUSH2 0x8E9 JUMP JUMPDEST PUSH1 0x40 MLOAD DUP1 SWAP2 SUB SWAP1 RETURN JUMPDEST CALLVALUE DUP1 ISZERO PUSH2 0x2C1 JUMPI PUSH1 0x0 DUP1 REVERT JUMPDEST POP PUSH2 0x2CA PUSH2 0x61F JUMP JUMPDEST PUSH1 0x40 MLOAD PUSH2 0x2D7 SWAP2 SWAP1 PUSH2 0x8E9 JUMP JUMPDEST PUSH1 0x40 MLOAD DUP1 SWAP2 SUB SWAP1 RETURN JUMPDEST CALLVALUE DUP1 ISZERO PUSH2 0x2EC JUMPI PUSH1 0x0 DUP1 REVERT JUMPDEST POP PUSH2 0x307 PUSH1 0x4 DUP1 CALLDATASIZE SUB DUP2 ADD SWAP1 PUSH2 0x302 SWAP2 SWAP1 PUSH2 0x76A JUMP JUMPDEST PUSH2 0x625 JUMP JUMPDEST STOP JUMPDEST CALLVALUE DUP1 ISZERO PUSH2 0x315 JUMPI PUSH1 0x0 DUP1 REVERT JUMPDEST POP PUSH2 0x330 PUSH1 0x4 DUP1 CALLDATASIZE SUB DUP2 ADD SWAP1 PUSH2 0x32B SWAP2 SWAP1 PUSH2 0x73D JUMP JUMPDEST PUSH2 0x6CB JUMP JUMPDEST PUSH1 0x40 MLOAD PUSH2 0x33D SWAP2 SWAP1 PUSH2 0x8E9 JUMP JUMPDEST PUSH1 0x40 MLOAD DUP1 SWAP2 SUB SWAP1 RETURN JUMPDEST CALLVALUE DUP1 ISZERO PUSH2 0x352 JUMPI PUSH1 0x0 DUP1 REVERT JUMPDEST POP PUSH2 0x35B PUSH2 0x6E3 JUMP JUMPDEST PUSH1 0x40 MLOAD PUSH2 0x368 SWAP2 SWAP1 PUSH2 0x8E9 JUMP JUMPDEST PUSH1 0x40 MLOAD DUP1 SWAP2 SUB SWAP1 RETURN JUMPDEST CALLVALUE DUP1 ISZERO PUSH2 0x37D JUMPI PUSH1 0x0 DUP1 REVERT JUMPDEST POP PUSH2 0x386 PUSH2 0x6E9 JUMP JUMPDEST PUSH1 0x40 MLOAD PUSH2 0x393 SWAP2 SWAP1 PUSH2 0x8E9 JUMP JUMPDEST PUSH1 0x40 MLOAD DUP1 SWAP2 SUB SWAP1 RETURN JUMPDEST CALLVALUE DUP1 ISZERO PUSH2 0x3A8 JUMPI PUSH1 0x0 DUP1 REVERT JUMPDEST POP PUSH2 0x3B1 PUSH2 0x6EF JUMP JUMPDEST PUSH1 0x40 MLOAD PUSH2 0x3BE SWAP2 SWAP1 PUSH2 0x87C JUMP JUMPDEST PUSH1 0x40 MLOAD DUP1 SWAP2 SUB SWAP1 RETURN JUMPDEST PUSH1 0x6 PUSH1 0x0 SWAP1 SLOAD SWAP1 PUSH2 0x100 EXP SWAP1 DIV PUSH20 0xFFFFFFFFFFFFFFFFFFFFFFFFFFFFFFFFFFFFFFFF AND DUP2 JUMP JUMPDEST PUSH1 0x2 SLOAD DUP2 JUMP JUMPDEST PUSH1 0x4 PUSH1 0x0 SWAP1 SLOAD SWAP1 PUSH2 0x100 EXP SWAP1 DIV PUSH20 0xFFFFFFFFFFFFFFFFFFFFFFFFFFFFFFFFFFFFFFFF AND PUSH20 0xFFFFFFFFFFFFFFFFFFFFFFFFFFFFFFFFFFFFFFFF AND PUSH4 0x42842E0E DUP3 PUSH1 0x6 PUSH1 0x0 SWAP1 SLOAD SWAP1 PUSH2 0x100 EXP SWAP1 DIV PUSH20 0xFFFFFFFFFFFFFFFFFFFFFFFFFFFFFFFFFFFFFFFF AND PUSH1 0x5 SLOAD PUSH1 0x40 MLOAD DUP5 PUSH4 0xFFFFFFFF AND PUSH1 0xE0 SHL DUP2 MSTORE PUSH1 0x4 ADD PUSH2 0x476 SWAP4 SWAP3 SWAP2 SWAP1 PUSH2 0x897 JUMP JUMPDEST PUSH1 0x0 PUSH1 0x40 MLOAD DUP1 DUP4 SUB DUP2 PUSH1 0x0 DUP8 DUP1 EXTCODESIZE ISZERO DUP1 ISZERO PUSH2 0x490 JUMPI PUSH1 0x0 DUP1 REVERT JUMPDEST POP GAS CALL ISZERO DUP1 ISZERO PUSH2 0x4A4 JUMPI RETURNDATASIZE PUSH1 0x0 DUP1 RETURNDATACOPY RETURNDATASIZE PUSH1 0x0 REVERT JUMPDEST POP POP POP POP POP JUMP JUMPDEST PUSH2 0x4D6 PUSH1 0x1 PUSH1 0x0 SWAP1 SLOAD SWAP1 PUSH2 0x100 EXP SWAP1 DIV PUSH20 0xFFFFFFFFFFFFFFFFFFFFFFFFFFFFFFFFFFFFFFFF AND PUSH2 0x3F3 JUMP JUMPDEST JUMP JUMPDEST PUSH1 0x4 PUSH1 0x0 SWAP1 SLOAD SWAP1 PUSH2 0x100 EXP SWAP1 DIV PUSH20 0xFFFFFFFFFFFFFFFFFFFFFFFFFFFFFFFFFFFFFFFF AND DUP2 JUMP JUMPDEST PUSH1 0x1 PUSH1 0x0 SWAP1 SLOAD SWAP1 PUSH2 0x100 EXP SWAP1 DIV PUSH20 0xFFFFFFFFFFFFFFFFFFFFFFFFFFFFFFFFFFFFFFFF AND DUP2 JUMP JUMPDEST PUSH1 0xB SLOAD DUP2 JUMP JUMPDEST PUSH1 0x7 SLOAD DUP2 JUMP JUMPDEST PUSH1 0x7 SLOAD DUP3 GT ISZERO PUSH2 0x583 JUMPI DUP2 PUSH1 0x7 DUP2 SWAP1 SSTORE POP DUP1 PUSH1 0x6 PUSH1 0x0 PUSH2 0x100 EXP DUP2 SLOAD DUP2 PUSH20 0xFFFFFFFFFFFFFFFFFFFFFFFFFFFFFFFFFFFFFFFF MUL NOT AND SWAP1 DUP4 PUSH20 0xFFFFFFFFFFFFFFFFFFFFFFFFFFFFFFFFFFFFFFFF AND MUL OR SWAP1 SSTORE POP JUMPDEST POP POP JUMP JUMPDEST PUSH1 0xB SLOAD DUP3 EQ ISZERO PUSH2 0x59A JUMPI PUSH2 0x599 PUSH2 0x4AB JUMP JUMPDEST JUMPDEST PUSH2 0x5A4 DUP3 DUP3 PUSH2 0x530 JUMP JUMPDEST DUP2 PUSH1 0x8 PUSH1 0x0 DUP4 PUSH20 0xFFFFFFFFFFFFFFFFFFFFFFFFFFFFFFFFFFFFFFFF AND PUSH20 0xFFFFFFFFFFFFFFFFFFFFFFFFFFFFFFFFFFFFFFFF AND DUP2 MSTORE PUSH1 0x20 ADD SWAP1 DUP2 MSTORE PUSH1 0x20 ADD PUSH1 0x0 KECCAK256 DUP2 SWAP1 SSTORE POP PUSH1 0xA PUSH1 0x0 DUP2 SLOAD DUP1 SWAP3 SWAP2 SWAP1 PUSH2 0x5FB SWAP1 PUSH2 0x988 JUMP JUMPDEST SWAP2 SWAP1 POP SSTORE POP PUSH1 0x9 SLOAD PUSH1 0xA SLOAD EQ ISZERO PUSH2 0x615 JUMPI PUSH2 0x614 PUSH2 0x4AB JUMP JUMPDEST JUMPDEST POP POP JUMP JUMPDEST PUSH1 0x9 SLOAD DUP2 JUMP JUMPDEST PUSH1 0x3 SLOAD DUP2 JUMP JUMPDEST DUP4 PUSH1 0x4 PUSH1 0x0 PUSH2 0x100 EXP DUP2 SLOAD DUP2 PUSH20 0xFFFFFFFFFFFFFFFFFFFFFFFFFFFFFFFFFFFFFFFF MUL NOT AND SWAP1 DUP4 PUSH20 0xFFFFFFFFFFFFFFFFFFFFFFFFFFFFFFFFFFFFFFFF AND MUL OR SWAP1 SSTORE POP DUP3 PUSH1 0x5 DUP2 SWAP1 SSTORE POP PUSH1 0x0 PUSH1 0x3 DUP2 SWAP1 SSTORE POP DUP5 PUSH1 0x1 PUSH1 0x0 PUSH2 0x100 EXP DUP2 SLOAD DUP2 PUSH20 0xFFFFFFFFFFFFFFFFFFFFFFFFFFFFFFFFFFFFFFFF MUL NOT AND SWAP1 DUP4 PUSH20 0xFFFFFFFFFFFFFFFFFFFFFFFFFFFFFFFFFFFFFFFF AND MUL OR SWAP1 SSTORE POP DUP2 PUSH1 0x9 DUP2 SWAP1 SSTORE POP DUP1 PUSH1 0xB DUP2 SWAP1 SSTORE POP POP POP POP POP POP JUMP JUMPDEST PUSH1 0x8 PUSH1 0x20 MSTORE DUP1 PUSH1 0x0 MSTORE PUSH1 0x40 PUSH1 0x0 KECCAK256 PUSH1 0x0 SWAP2 POP SWAP1 POP SLOAD DUP2 JUMP JUMPDEST PUSH1 0x5 SLOAD DUP2 JUMP JUMPDEST PUSH1 0xA SLOAD DUP2 JUMP JUMPDEST PUSH1 0x0 DUP1 SLOAD SWAP1 PUSH2 0x100 EXP SWAP1 DIV PUSH20 0xFFFFFFFFFFFFFFFFFFFFFFFFFFFFFFFFFFFFFFFF AND DUP2 JUMP JUMPDEST PUSH1 0x0 DUP2 CALLDATALOAD SWAP1 POP PUSH2 0x722 DUP2 PUSH2 0xA05 JUMP JUMPDEST SWAP3 SWAP2 POP POP JUMP JUMPDEST PUSH1 0x0 DUP2 CALLDATALOAD SWAP1 POP PUSH2 0x737 DUP2 PUSH2 0xA1C JUMP JUMPDEST SWAP3 SWAP2 POP POP JUMP JUMPDEST PUSH1 0x0 PUSH1 0x20 DUP3 DUP5 SUB SLT ISZERO PUSH2 0x753 JUMPI PUSH2 0x752 PUSH2 0xA00 JUMP JUMPDEST JUMPDEST PUSH1 0x0 PUSH2 0x761 DUP5 DUP3 DUP6 ADD PUSH2 0x713 JUMP JUMPDEST SWAP2 POP POP SWAP3 SWAP2 POP POP JUMP JUMPDEST PUSH1 0x0 DUP1 PUSH1 0x0 DUP1 PUSH1 0x0 PUSH1 0xA0 DUP7 DUP9 SUB SLT ISZERO PUSH2 0x786 JUMPI PUSH2 0x785 PUSH2 0xA00 JUMP JUMPDEST JUMPDEST PUSH1 0x0 PUSH2 0x794 DUP9 DUP3 DUP10 ADD PUSH2 0x713 JUMP JUMPDEST SWAP6 POP POP PUSH1 0x20 PUSH2 0x7A5 DUP9 DUP3 DUP10 ADD PUSH2 0x713 JUMP JUMPDEST SWAP5 POP POP PUSH1 0x40 PUSH2 0x7B6 DUP9 DUP3 DUP10 ADD PUSH2 0x728 JUMP JUMPDEST SWAP4 POP POP PUSH1 0x60 PUSH2 0x7C7 DUP9 DUP3 DUP10 ADD PUSH2 0x728 JUMP JUMPDEST SWAP3 POP POP PUSH1 0x80 PUSH2 0x7D8 DUP9 DUP3 DUP10 ADD PUSH2 0x728 JUMP JUMPDEST SWAP2 POP POP SWAP3 SWAP6 POP SWAP3 SWAP6 SWAP1 SWAP4 POP JUMP JUMPDEST PUSH1 0x0 DUP1 PUSH1 0x40 DUP4 DUP6 SUB SLT ISZERO PUSH2 0x7FC JUMPI PUSH2 0x7FB PUSH2 0xA00 JUMP JUMPDEST JUMPDEST PUSH1 0x0 PUSH2 0x80A DUP6 DUP3 DUP7 ADD PUSH2 0x728 JUMP JUMPDEST SWAP3 POP POP PUSH1 0x20 PUSH2 0x81B DUP6 DUP3 DUP7 ADD PUSH2 0x713 JUMP JUMPDEST SWAP2 POP POP SWAP3 POP SWAP3 SWAP1 POP JUMP JUMPDEST PUSH2 0x82E DUP2 PUSH2 0x916 JUMP JUMPDEST DUP3 MSTORE POP POP JUMP JUMPDEST PUSH2 0x83D DUP2 PUSH2 0x904 JUMP JUMPDEST DUP3 MSTORE POP POP JUMP JUMPDEST PUSH2 0x84C DUP2 PUSH2 0x952 JUMP JUMPDEST DUP3 MSTORE POP POP JUMP JUMPDEST PUSH2 0x85B DUP2 PUSH2 0x948 JUMP JUMPDEST DUP3 MSTORE POP POP JUMP JUMPDEST PUSH1 0x0 PUSH1 0x20 DUP3 ADD SWAP1 POP PUSH2 0x876 PUSH1 0x0 DUP4 ADD DUP5 PUSH2 0x834 JUMP JUMPDEST SWAP3 SWAP2 POP POP JUMP JUMPDEST PUSH1 0x0 PUSH1 0x20 DUP3 ADD SWAP1 POP PUSH2 0x891 PUSH1 0x0 DUP4 ADD DUP5 PUSH2 0x825 JUMP JUMPDEST SWAP3 SWAP2 POP POP JUMP JUMPDEST PUSH1 0x0 PUSH1 0x60 DUP3 ADD SWAP1 POP PUSH2 0x8AC PUSH1 0x0 DUP4 ADD DUP7 PUSH2 0x834 JUMP JUMPDEST PUSH2 0x8B9 PUSH1 0x20 DUP4 ADD DUP6 PUSH2 0x834 JUMP JUMPDEST PUSH2 0x8C6 PUSH1 0x40 DUP4 ADD DUP5 PUSH2 0x852 JUMP JUMPDEST SWAP5 SWAP4 POP POP POP POP JUMP JUMPDEST PUSH1 0x0 PUSH1 0x20 DUP3 ADD SWAP1 POP PUSH2 0x8E3 PUSH1 0x0 DUP4 ADD DUP5 PUSH2 0x843 JUMP JUMPDEST SWAP3 SWAP2 POP POP JUMP JUMPDEST PUSH1 0x0 PUSH1 0x20 DUP3 ADD SWAP1 POP PUSH2 0x8FE PUSH1 0x0 DUP4 ADD DUP5 PUSH2 0x852 JUMP JUMPDEST SWAP3 SWAP2 POP POP JUMP JUMPDEST PUSH1 0x0 PUSH2 0x90F DUP3 PUSH2 0x928 JUMP JUMPDEST SWAP1 POP SWAP2 SWAP1 POP JUMP JUMPDEST PUSH1 0x0 PUSH2 0x921 DUP3 PUSH2 0x928 JUMP JUMPDEST SWAP1 POP SWAP2 SWAP1 POP JUMP JUMPDEST PUSH1 0x0 PUSH20 0xFFFFFFFFFFFFFFFFFFFFFFFFFFFFFFFFFFFFFFFF DUP3 AND SWAP1 POP SWAP2 SWAP1 POP JUMP JUMPDEST PUSH1 0x0 DUP2 SWAP1 POP SWAP2 SWAP1 POP JUMP JUMPDEST PUSH1 0x0 PUSH2 0x95D DUP3 PUSH2 0x964 JUMP JUMPDEST SWAP1 POP SWAP2 SWAP1 POP JUMP JUMPDEST PUSH1 0x0 PUSH2 0x96F DUP3 PUSH2 0x976 JUMP JUMPDEST SWAP1 POP SWAP2 SWAP1 POP JUMP JUMPDEST PUSH1 0x0 PUSH2 0x981 DUP3 PUSH2 0x928 JUMP JUMPDEST SWAP1 POP SWAP2 SWAP1 POP JUMP JUMPDEST PUSH1 0x0 PUSH2 0x993 DUP3 PUSH2 0x948 JUMP JUMPDEST SWAP2 POP PUSH32 0xFFFFFFFFFFFFFFFFFFFFFFFFFFFFFFFFFFFFFFFFFFFFFFFFFFFFFFFFFFFFFFFF DUP3 EQ ISZERO PUSH2 0x9C6 JUMPI PUSH2 0x9C5 PUSH2 0x9D1 JUMP JUMPDEST JUMPDEST PUSH1 0x1 DUP3 ADD SWAP1 POP SWAP2 SWAP1 POP JUMP JUMPDEST PUSH32 0x4E487B7100000000000000000000000000000000000000000000000000000000 PUSH1 0x0 MSTORE PUSH1 0x11 PUSH1 0x4 MSTORE PUSH1 0x24 PUSH1 0x0 REVERT JUMPDEST PUSH1 0x0 DUP1 REVERT JUMPDEST PUSH2 0xA0E DUP2 PUSH2 0x904 JUMP JUMPDEST DUP2 EQ PUSH2 0xA19 JUMPI PUSH1 0x0 DUP1 REVERT JUMPDEST POP JUMP JUMPDEST PUSH2 0xA25 DUP2 PUSH2 0x948 JUMP JUMPDEST DUP2 EQ PUSH2 0xA30 JUMPI PUSH1 0x0 DUP1 REVERT JUMPDEST POP JUMP INVALID LOG2 PUSH5 0x6970667358 0x22 SLT KECCAK256 SLT 0x5D PUSH24 0xB056AFCDC6B6EAB68AFCF060FB8E0B7C41D33196021B8F10 PUSH2 0x12E3 DUP2 0xC1 PUSH5 0x736F6C6343 STOP ADDMOD SMOD STOP CALLER "
		},
		"gasEstimates": {
			"creation": {
				"codeDepositCost": "533000",
				"executionCost": "568",
				"totalCost": "533568"
			},
			"external": {
				"Auction(address,address,uint256,uint256,uint256)": "infinite",
				"allBids(address)": "2858",
				"amountOfBids()": "2517",
				"auctionClose()": "2475",
				"beneficiaryAddress()": "2621",
				"bid(uint256,address)": "infinite",
				"buyNowPrice()": "2496",
				"closeAuction()": "infinite",
				"maxBids()": "2496",
				"nft()": "2623",
				"nftId()": "2495",
				"nftOwner()": "2559",
				"testnum()": "2518",
				"topBid()": "2518",
				"topBidder()": "2538",
				"transferNFT(address)": "infinite",
				"updateTopBid(uint256,address)": "49158"
			}
		},
		"methodIdentifiers": {
			"Auction(address,address,uint256,uint256,uint256)": "a04b5b35",
			"allBids(address)": "bd201607",
			"amountOfBids()": "d22596c9",
			"auctionClose()": "19c2a5b5",
			"beneficiaryAddress()": "d9c4870e",
			"bid(uint256,address)": "9f04996d",
			"buyNowPrice()": "5ecbdce9",
			"closeAuction()": "378252f2",
			"maxBids()": "9f235ccd",
			"nft()": "47ccca02",
			"nftId()": "c6bc5182",
			"nftOwner()": "4c39a749",
			"testnum()": "9fa879d9",
			"topBid()": "636bf730",
			"topBidder()": "01333f06",
			"transferNFT(address)": "36e986ef",
			"updateTopBid(uint256,address)": "8800b621"
		}
	},
	"abi": [
		{
			"inputs": [
				{
					"internalType": "address",
					"name": "nftowner",
					"type": "address"
				},
				{
					"internalType": "address",
					"name": "_nft",
					"type": "address"
				},
				{
					"internalType": "uint256",
					"name": "_nftId",
					"type": "uint256"
				},
				{
					"internalType": "uint256",
					"name": "maxbids",
					"type": "uint256"
				},
				{
					"internalType": "uint256",
					"name": "buyNow",
					"type": "uint256"
				}
			],
			"name": "Auction",
			"outputs": [],
			"stateMutability": "nonpayable",
			"type": "function"
		},
		{
			"inputs": [
				{
					"internalType": "address",
					"name": "",
					"type": "address"
				}
			],
			"name": "allBids",
			"outputs": [
				{
					"internalType": "uint256",
					"name": "",
					"type": "uint256"
				}
			],
			"stateMutability": "view",
			"type": "function"
		},
		{
			"inputs": [],
			"name": "amountOfBids",
			"outputs": [
				{
					"internalType": "uint256",
					"name": "",
					"type": "uint256"
				}
			],
			"stateMutability": "view",
			"type": "function"
		},
		{
			"inputs": [],
			"name": "auctionClose",
			"outputs": [
				{
					"internalType": "uint256",
					"name": "",
					"type": "uint256"
				}
			],
			"stateMutability": "view",
			"type": "function"
		},
		{
			"inputs": [],
			"name": "beneficiaryAddress",
			"outputs": [
				{
					"internalType": "address payable",
					"name": "",
					"type": "address"
				}
			],
			"stateMutability": "view",
			"type": "function"
		},
		{
			"inputs": [
				{
					"internalType": "uint256",
					"name": "bidAmount",
					"type": "uint256"
				},
				{
					"internalType": "address",
					"name": "bidder",
					"type": "address"
				}
			],
			"name": "bid",
			"outputs": [],
			"stateMutability": "nonpayable",
			"type": "function"
		},
		{
			"inputs": [],
			"name": "buyNowPrice",
			"outputs": [
				{
					"internalType": "uint256",
					"name": "",
					"type": "uint256"
				}
			],
			"stateMutability": "view",
			"type": "function"
		},
		{
			"inputs": [],
			"name": "closeAuction",
			"outputs": [],
			"stateMutability": "nonpayable",
			"type": "function"
		},
		{
			"inputs": [],
			"name": "maxBids",
			"outputs": [
				{
					"internalType": "uint256",
					"name": "",
					"type": "uint256"
				}
			],
			"stateMutability": "view",
			"type": "function"
		},
		{
			"inputs": [],
			"name": "nft",
			"outputs": [
				{
					"internalType": "contract IERC721",
					"name": "",
					"type": "address"
				}
			],
			"stateMutability": "view",
			"type": "function"
		},
		{
			"inputs": [],
			"name": "nftId",
			"outputs": [
				{
					"internalType": "uint256",
					"name": "",
					"type": "uint256"
				}
			],
			"stateMutability": "view",
			"type": "function"
		},
		{
			"inputs": [],
			"name": "nftOwner",
			"outputs": [
				{
					"internalType": "address",
					"name": "",
					"type": "address"
				}
			],
			"stateMutability": "view",
			"type": "function"
		},
		{
			"inputs": [],
			"name": "testnum",
			"outputs": [
				{
					"internalType": "uint256",
					"name": "",
					"type": "uint256"
				}
			],
			"stateMutability": "view",
			"type": "function"
		},
		{
			"inputs": [],
			"name": "topBid",
			"outputs": [
				{
					"internalType": "uint256",
					"name": "",
					"type": "uint256"
				}
			],
			"stateMutability": "view",
			"type": "function"
		},
		{
			"inputs": [],
			"name": "topBidder",
			"outputs": [
				{
					"internalType": "address",
					"name": "",
					"type": "address"
				}
			],
			"stateMutability": "view",
			"type": "function"
		},
		{
			"inputs": [
				{
					"internalType": "address",
					"name": "owner",
					"type": "address"
				}
			],
			"name": "transferNFT",
			"outputs": [],
			"stateMutability": "payable",
			"type": "function"
		},
		{
			"inputs": [
				{
					"internalType": "uint256",
					"name": "bidAmount",
					"type": "uint256"
				},
				{
					"internalType": "address",
					"name": "bidder",
					"type": "address"
				}
			],
			"name": "updateTopBid",
			"outputs": [],
			"stateMutability": "nonpayable",
			"type": "function"
		}
	]
}